{
  "_format": "hh-sol-artifact-1",
  "contractName": "TwoExchangeFlashloanArbitrage",
  "sourceName": "contracts/TwoExchangeFlashloanArbitrage.sol",
  "abi": [
    {
      "inputs": [
        {
          "internalType": "contract IPoolAddressesProvider",
          "name": "_addressProvider",
          "type": "address"
        },
        {
          "internalType": "address",
          "name": "_uniswapRouter",
          "type": "address"
        },
        {
          "internalType": "address",
          "name": "_sushiswapRouter",
          "type": "address"
        },
        {
          "internalType": "address",
          "name": "_weth",
          "type": "address"
        }
      ],
      "stateMutability": "nonpayable",
      "type": "constructor"
    },
    {
      "inputs": [],
      "name": "ADDRESSES_PROVIDER",
      "outputs": [
        {
          "internalType": "contract IPoolAddressesProvider",
          "name": "",
          "type": "address"
        }
      ],
      "stateMutability": "view",
      "type": "function"
    },
    {
      "inputs": [],
      "name": "POOL",
      "outputs": [
        {
          "internalType": "contract IPool",
          "name": "",
          "type": "address"
        }
      ],
      "stateMutability": "view",
      "type": "function"
    },
    {
      "inputs": [
        {
          "internalType": "uint256",
          "name": "amount",
          "type": "uint256"
        },
        {
          "internalType": "address",
          "name": "tokenAddress",
          "type": "address"
        }
      ],
      "name": "executeFlashloan",
      "outputs": [],
      "stateMutability": "nonpayable",
      "type": "function"
    },
    {
      "inputs": [
        {
          "internalType": "address[]",
          "name": "assets",
          "type": "address[]"
        },
        {
          "internalType": "uint256[]",
          "name": "amounts",
          "type": "uint256[]"
        },
        {
          "internalType": "uint256[]",
          "name": "premiums",
          "type": "uint256[]"
        },
        {
          "internalType": "address",
          "name": "initiator",
          "type": "address"
        },
        {
          "internalType": "bytes",
          "name": "params",
          "type": "bytes"
        }
      ],
      "name": "executeOperation",
      "outputs": [
        {
          "internalType": "bool",
          "name": "",
          "type": "bool"
        }
      ],
      "stateMutability": "nonpayable",
      "type": "function"
    },
    {
      "inputs": [],
      "name": "owner",
      "outputs": [
        {
          "internalType": "address",
          "name": "",
          "type": "address"
        }
      ],
      "stateMutability": "view",
      "type": "function"
    },
    {
      "inputs": [],
      "name": "sushiswapRouter",
      "outputs": [
        {
          "internalType": "address",
          "name": "",
          "type": "address"
        }
      ],
      "stateMutability": "view",
      "type": "function"
    },
    {
      "inputs": [],
      "name": "uniswapRouter",
      "outputs": [
        {
          "internalType": "address",
          "name": "",
          "type": "address"
        }
      ],
      "stateMutability": "view",
      "type": "function"
    },
    {
      "inputs": [],
      "name": "weth",
      "outputs": [
        {
          "internalType": "address",
          "name": "",
          "type": "address"
        }
      ],
      "stateMutability": "view",
      "type": "function"
    },
    {
      "inputs": [
        {
          "internalType": "address",
          "name": "tokenAddr",
          "type": "address"
        },
        {
          "internalType": "uint256",
          "name": "amount",
          "type": "uint256"
        },
        {
          "internalType": "address",
          "name": "receiver",
          "type": "address"
        }
      ],
      "name": "withdrawERC20",
      "outputs": [],
      "stateMutability": "nonpayable",
      "type": "function"
    }
  ],
  "bytecode": "0x60c06040523480156200001157600080fd5b5060405162000eee38038062000eee833981016040819052620000349162000123565b83806001600160a01b03166080816001600160a01b031681525050806001600160a01b031663026b1d5f6040518163ffffffff1660e01b8152600401602060405180830381865afa1580156200008e573d6000803e3d6000fd5b505050506040513d601f19601f82011682018060405250810190620000b491906200018b565b6001600160a01b0390811660a052600080549582166001600160a01b03199687161790556001805494821694861694909417909355506002805491909216908316179055600380549091163317905550620001b2565b6001600160a01b03811681146200012057600080fd5b50565b600080600080608085870312156200013a57600080fd5b845162000147816200010a565b60208601519094506200015a816200010a565b60408601519093506200016d816200010a565b606086015190925062000180816200010a565b939692955090935050565b6000602082840312156200019e57600080fd5b8151620001ab816200010a565b9392505050565b60805160a051610d09620001e56000396000818161011c01528181610480015261064201526000609d0152610d096000f3fe608060405234801561001057600080fd5b50600436106100935760003560e01c80637535d246116100665780637535d246146101175780638da5cb5b1461013e578063920f5c8414610151578063a7c2434e14610174578063e9240c2d1461018757600080fd5b80630542975c146100985780633fc8cef3146100dc5780635fc3ea0b146100ef578063735de9f714610104575b600080fd5b6100bf7f000000000000000000000000000000000000000000000000000000000000000081565b6040516001600160a01b0390911681526020015b60405180910390f35b6002546100bf906001600160a01b031681565b6101026100fd36600461082d565b61019a565b005b6000546100bf906001600160a01b031681565b6100bf7f000000000000000000000000000000000000000000000000000000000000000081565b6003546100bf906001600160a01b031681565b61016461015f3660046108b5565b610246565b60405190151581526020016100d3565b6101026101823660046109b9565b610513565b6001546100bf906001600160a01b031681565b6003546001600160a01b031633146101cd5760405162461bcd60e51b81526004016101c4906109e5565b60405180910390fd5b60405163a9059cbb60e01b81526001600160a01b0382811660048301526024820184905284169063a9059cbb906044016020604051808303816000875af115801561021c573d6000803e3d6000fd5b505050506040513d601f19601f820116820180604052508101906102409190610a26565b50505050565b6000808888600081811061025c5761025c610a4f565b9050602002013590508a8a600081811061027857610278610a4f565b905060200201602081019061028d9190610a65565b60005460405163095ea7b360e01b81526001600160a01b0391821660048201526024810184905291169063095ea7b3906044016020604051808303816000875af11580156102df573d6000803e3d6000fd5b505050506040513d601f19601f820116820180604052508101906103039190610a26565b5060006103438c8c600081811061031c5761031c610a4f565b90506020020160208101906103319190610a65565b6002546001600160a01b0316846106c0565b60025460015460405163095ea7b360e01b81526001600160a01b03918216600482015260248101849052929350169063095ea7b3906044016020604051808303816000875af115801561039a573d6000803e3d6000fd5b505050506040513d601f19601f820116820180604052508101906103be9190610a26565b506002546000906103fd906001600160a01b03168e8e84816103e2576103e2610a4f565b90506020020160208101906103f79190610a65565b846107fa565b905060008989600081811061041457610414610a4f565b905060200201358c8c600081811061042e5761042e610a4f565b9050602002013561043f9190610a80565b90508d8d600081811061045457610454610a4f565b90506020020160208101906104699190610a65565b60405163095ea7b360e01b81526001600160a01b037f00000000000000000000000000000000000000000000000000000000000000008116600483015260248201849052919091169063095ea7b3906044016020604051808303816000875af11580156104da573d6000803e3d6000fd5b505050506040513d601f19601f820116820180604052508101906104fe9190610a26565b5060019e9d5050505050505050505050505050565b6003546001600160a01b0316331461053d5760405162461bcd60e51b81526004016101c4906109e5565b60408051600180825281830190925230916000919060208083019080368337019050509050828160008151811061057657610576610a4f565b6001600160a01b03929092166020928302919091019091015260408051600180825281830190925260009181602001602082028036833701905050905084816000815181106105c7576105c7610a4f565b602090810291909101015260408051600180825281830190925260009181602001602082028036833701905050905060008160008151811061060b5761060b610a4f565b6020908102919091018101919091526040805191820181526000808352905163ab9c4b5d60e01b8152309291906001600160a01b037f0000000000000000000000000000000000000000000000000000000000000000169063ab9c4b5d90610683908a908a908a908a908a908a908a90600401610b33565b600060405180830381600087803b15801561069d57600080fd5b505af11580156106b1573d6000803e3d6000fd5b50505050505050505050505050565b600080546001600160a01b03168160025b6040519080825280602002602001820160405280156106fa578160200160208202803683370190505b509050858160008151811061071157610711610a4f565b60200260200101906001600160a01b031690816001600160a01b031681525050848160018151811061074557610745610a4f565b6001600160a01b0392831660209182029290920101526040516338ed173960e01b81526000918416906338ed17399061078a9088908590879030904290600401610be5565b6000604051808303816000875af11580156107a9573d6000803e3d6000fd5b505050506040513d6000823e601f3d908101601f191682016040526107d19190810190610c21565b9050806001815181106107e6576107e6610a4f565b602002602001015193505050509392505050565b6001546000906001600160a01b03168160026106d1565b80356001600160a01b038116811461082857600080fd5b919050565b60008060006060848603121561084257600080fd5b61084b84610811565b92506020840135915061086060408501610811565b90509250925092565b60008083601f84011261087b57600080fd5b50813567ffffffffffffffff81111561089357600080fd5b6020830191508360208260051b85010111156108ae57600080fd5b9250929050565b600080600080600080600080600060a08a8c0312156108d357600080fd5b893567ffffffffffffffff808211156108eb57600080fd5b6108f78d838e01610869565b909b50995060208c013591508082111561091057600080fd5b61091c8d838e01610869565b909950975060408c013591508082111561093557600080fd5b6109418d838e01610869565b909750955085915061095560608d01610811565b945060808c013591508082111561096b57600080fd5b818c0191508c601f83011261097f57600080fd5b81358181111561098e57600080fd5b8d60208285010111156109a057600080fd5b6020830194508093505050509295985092959850929598565b600080604083850312156109cc57600080fd5b823591506109dc60208401610811565b90509250929050565b60208082526021908201527f4f6e6c79206f776e65722063616e2063616c6c20746869732066756e6374696f6040820152603760f91b606082015260800190565b600060208284031215610a3857600080fd5b81518015158114610a4857600080fd5b9392505050565b634e487b7160e01b600052603260045260246000fd5b600060208284031215610a7757600080fd5b610a4882610811565b80820180821115610aa157634e487b7160e01b600052601160045260246000fd5b92915050565b634e487b7160e01b600052604160045260246000fd5b60008151808452602080850194506020840160005b83811015610af75781516001600160a01b031687529582019590820190600101610ad2565b509495945050505050565b60008151808452602080850194506020840160005b83811015610af757815187529582019590820190600101610b17565b600060018060a01b03808a168352602060e081850152610b5660e085018b610abd565b8481036040860152610b68818b610b02565b90508481036060860152610b7c818a610b02565b92881660808601525083820360a085015285518083529160005b83811015610bb1578781018301518282018401528201610b96565b506000818401830152601f909201601f1916909101019050610bd960c083018461ffff169052565b98975050505050505050565b85815284602082015260a060408201526000610c0460a0830186610abd565b6001600160a01b0394909416606083015250608001529392505050565b60006020808385031215610c3457600080fd5b825167ffffffffffffffff80821115610c4c57600080fd5b818501915085601f830112610c6057600080fd5b815181811115610c7257610c72610aa7565b8060051b604051601f19603f83011681018181108582111715610c9757610c97610aa7565b604052918252848201925083810185019188831115610cb557600080fd5b938501935b82851015610bd957845184529385019392850192610cba56fea2646970667358221220390498ab3ba2827a5ae87e33276bd4a2a5e758b1beee09886f9b96d006167a6c64736f6c63430008180033",
  "linkReferences": {},
  "deployedLinkReferences": {}
}